:100000000C942A000C9434000C9434000C943400AA
:100010000C9434000C9434000C9434000C94340090
:100020000C9434000C9434000C9434000C94340080
:100030000C9434000C9434000C9434000C94340070
:100040000C9434000C9434000C9434000C94340060
:100050000C94340011241FBECFE5D8E0DEBFCDBF25
:100060000E94E5010C94E8010C9400008FEF8ABB1C
:1000700081E087BB84BB81BB1BBA85E888BB85BB9D
:1000800082BB81E00895843010F083E008958130D0
:1000900049F0813028F0823039F0833031F407C0E4
:1000A0006ABB03C067BB01C064BB81E0089561BB4C
:1000B00081E00895843010F083E00895813049F0A4
:1000C000813028F0823039F0833031F407C06BBBC7
:1000D00003C068BB01C065BB81E0089562BB81E0DD
:1000E0000895843010F083E00895813059F0813014
:1000F00028F0823059F0833061F40DC08BB38095C5
:100100008BBB07C088B3809588BB03C085B380953F
:1001100085BB81E0089582B3809582BB81E008951C
:10012000FB016115710511F482E00895843010F02F
:1001300083E00895813049F0813028F0823039F031
:10014000833039F408C089B303C086B301C083B3D8
:10015000808381E0089580B3808381E008958430B6
:1001600008F065C0683008F062C0423008F05FC037
:100170008130E9F0813030F0823071F1833009F064
:1001800054C03FC08AB321E030E0062E02C0220FE7
:10019000331F0A94E2F720952823842F90E002C0B1
:1001A000880F991F6A95E2F7282B2ABB3EC087B3B8
:1001B00021E030E0062E02C0220F331F0A94E2F73E
:1001C00020952823842F90E002C0880F991F6A95FC
:1001D000E2F7282B27BB29C084B321E030E0062EAC
:1001E00002C0220F331F0A94E2F720952823842FA0
:1001F00090E002C0880F991F6A95E2F7282B24BB74
:1002000014C081B321E030E0062E02C0220F331F5C
:100210000A94E2F720952823842F90E002C0880FEB
:10022000991F6A95E2F7282B21BB81E0089583E0AE
:100230000895843008F065C0683008F062C042302C
:1002400008F05FC08130E9F0813030F0823071F128
:10025000833009F054C03FC08BB321E030E0062E5C
:1002600002C0220F331F0A94E2F720952823842F1F
:1002700090E002C0880F991F6A95E2F7282B2BBBEC
:100280003EC088B321E030E0062E02C0220F331FAB
:100290000A94E2F720952823842F90E002C0880F6B
:1002A000991F6A95E2F7282B28BB29C085B321E066
:1002B00030E0062E02C0220F331F0A94E2F7209589
:1002C0002823842F90E002C0880F991F6A95E2F7D7
:1002D000282B25BB14C082B321E030E0062E02C0DB
:1002E000220F331F0A94E2F720952823842F90E0F1
:1002F00002C0880F991F6A95E2F7282B22BB81E084
:10030000089583E008958430C0F56830B0F58130F9
:1003100091F0813028F08230C9F0833061F521C03E
:100320002BB381E090E002C0880F991F6A95E2F735
:1003300028272BBB20C028B381E090E002C0880FA3
:10034000991F6A95E2F7282728BB15C025B381E0DD
:1003500090E002C0880F991F6A95E2F7282725BB15
:100360000AC022B381E090E002C0880F991F6A950D
:10037000E2F7282722BB81E0089583E00895FA017F
:100380004115510511F482E008958430E0F468309D
:10039000D0F4813049F0813028F0823039F0833058
:1003A00081F406C089B305C086B303C083B301C01E
:1003B00080B390E002C0959587956A95E2F78170C9
:1003C000808381E0089583E0089580E090E00895BF
:0403D000F894FFCFCF
:00000001FF
